{"abi":[{"type":"constructor","inputs":[{"name":"entranceFee","type":"uint256","internalType":"uint256"}],"stateMutability":"nonpayable"},{"type":"function","name":"enterRaffle","inputs":[],"outputs":[],"stateMutability":"payable"},{"type":"function","name":"getEntranceFee","inputs":[],"outputs":[{"name":"","type":"uint256","internalType":"uint256"}],"stateMutability":"view"},{"type":"function","name":"pickWinner","inputs":[],"outputs":[],"stateMutability":"nonpayable"}],"bytecode":{"object":"0x60a060405234801561001057600080fd5b5060405161011f38038061011f83398101604081905261002f91610037565b608052610050565b60006020828403121561004957600080fd5b5051919050565b60805160b761006860003960006043015260b76000f3fe60806040526004361060305760003560e01c806309bc33a71460355780632cfcc5391460745780635d495aea146076575b600080fd5b348015604057600080fd5b507f000000000000000000000000000000000000000000000000000000000000000060405190815260200160405180910390f35b005b348015607457600080fdfea2646970667358221220d844831e5c5c910fb7a33c8cb26e871a74fbaaf9b99b89ee4ac86ecc984490f164736f6c63430008130033","linkReferences":{}},"methodIdentifiers":{"enterRaffle()":"2cfcc539","getEntranceFee()":"09bc33a7","pickWinner()":"5d495aea"},"id":0}