{"abi":[{"type":"constructor","inputs":[{"name":"entranceFee","type":"uint256","internalType":"uint256"},{"name":"interval","type":"uint256","internalType":"uint256"},{"name":"vrfCoordinator","type":"address","internalType":"address"},{"name":"gasLane","type":"bytes32","internalType":"bytes32"},{"name":"subscriptionId","type":"uint256","internalType":"uint256"},{"name":"callbackGasLimit","type":"uint32","internalType":"uint32"}],"stateMutability":"nonpayable"},{"type":"function","name":"acceptOwnership","inputs":[],"outputs":[],"stateMutability":"nonpayable"},{"type":"function","name":"enterRaffle","inputs":[],"outputs":[],"stateMutability":"payable"},{"type":"function","name":"getEntranceFee","inputs":[],"outputs":[{"name":"","type":"uint256","internalType":"uint256"}],"stateMutability":"view"},{"type":"function","name":"owner","inputs":[],"outputs":[{"name":"","type":"address","internalType":"address"}],"stateMutability":"view"},{"type":"function","name":"pickWinner","inputs":[],"outputs":[],"stateMutability":"nonpayable"},{"type":"function","name":"rawFulfillRandomWords","inputs":[{"name":"requestId","type":"uint256","internalType":"uint256"},{"name":"randomWords","type":"uint256[]","internalType":"uint256[]"}],"outputs":[],"stateMutability":"nonpayable"},{"type":"function","name":"s_players","inputs":[{"name":"","type":"uint256","internalType":"uint256"}],"outputs":[{"name":"","type":"address","internalType":"address payable"}],"stateMutability":"view"},{"type":"function","name":"s_vrfCoordinator","inputs":[],"outputs":[{"name":"","type":"address","internalType":"contract IVRFCoordinatorV2Plus"}],"stateMutability":"view"},{"type":"function","name":"setCoordinator","inputs":[{"name":"_vrfCoordinator","type":"address","internalType":"address"}],"outputs":[],"stateMutability":"nonpayable"},{"type":"function","name":"transferOwnership","inputs":[{"name":"to","type":"address","internalType":"address"}],"outputs":[],"stateMutability":"nonpayable"},{"type":"event","name":"CoordinatorSet","inputs":[{"name":"vrfCoordinator","type":"address","indexed":false,"internalType":"address"}],"anonymous":false},{"type":"event","name":"OwnershipTransferRequested","inputs":[{"name":"from","type":"address","indexed":true,"internalType":"address"},{"name":"to","type":"address","indexed":true,"internalType":"address"}],"anonymous":false},{"type":"event","name":"OwnershipTransferred","inputs":[{"name":"from","type":"address","indexed":true,"internalType":"address"},{"name":"to","type":"address","indexed":true,"internalType":"address"}],"anonymous":false},{"type":"event","name":"RaffleEntered","inputs":[{"name":"player","type":"address","indexed":true,"internalType":"address"}],"anonymous":false},{"type":"error","name":"OnlyCoordinatorCanFulfill","inputs":[{"name":"have","type":"address","internalType":"address"},{"name":"want","type":"address","internalType":"address"}]},{"type":"error","name":"OnlyOwnerOrCoordinator","inputs":[{"name":"have","type":"address","internalType":"address"},{"name":"owner","type":"address","internalType":"address"},{"name":"coordinator","type":"address","internalType":"address"}]},{"type":"error","name":"Raffle__SendMoreToEnterRaffle","inputs":[]},{"type":"error","name":"ZeroAddress","inputs":[]}],"bytecode":{"object":"0x61012060405234801561001157600080fd5b50604051610c37380380610c37833981016040819052610030916101d0565b8333806000816100875760405162461bcd60e51b815260206004820152601860248201527f43616e6e6f7420736574206f776e657220746f207a65726f000000000000000060448201526064015b60405180910390fd5b600080546001600160a01b0319166001600160a01b03848116919091179091558116156100b7576100b781610127565b5050506001600160a01b0381166100e15760405163d92e233d60e01b815260040160405180910390fd5b600280546001600160a01b0319166001600160a01b039290921691909117905560809590955260a0939093524260045560c0525060e05263ffffffff1661010052610246565b336001600160a01b0382160361017f5760405162461bcd60e51b815260206004820152601760248201527f43616e6e6f74207472616e7366657220746f2073656c66000000000000000000604482015260640161007e565b600180546001600160a01b0319166001600160a01b0383811691821790925560008054604051929316917fed8889f560326eb138920d842192f0eb3dd22b4f139c87a2c57538e05bae12789190a350565b60008060008060008060c087890312156101e957600080fd5b86516020880151604089015191975095506001600160a01b038116811461020f57600080fd5b80945050606087015192506080870151915060a087015163ffffffff8116811461023857600080fd5b809150509295509295509295565b60805160a05160c05160e051610100516109a761029060003960006103b80152600061038701526000610361015260006102d701526000818160a8015261022801526109a76000f3fe6080604052600436106100915760003560e01c80638da5cb5b116100595780638da5cb5b1461012a5780638ea981171461015c5780639eccacf61461017c578063ae771f6b1461019c578063f2fde38b146101bc57600080fd5b806309bc33a7146100965780631fe543e3146100d65780632cfcc539146100f85780635d495aea1461010057806379ba509714610115575b600080fd5b3480156100a257600080fd5b506040517f000000000000000000000000000000000000000000000000000000000000000081526020015b60405180910390f35b3480156100e257600080fd5b506100f66100f13660046107cd565b6101dc565b005b6100f6610226565b34801561010c57600080fd5b506100f66102d5565b34801561012157600080fd5b506100f6610484565b34801561013657600080fd5b506000546001600160a01b03165b6040516001600160a01b0390911681526020016100cd565b34801561016857600080fd5b506100f661017736600461084c565b61052e565b34801561018857600080fd5b50600254610144906001600160a01b031681565b3480156101a857600080fd5b506101446101b736600461087c565b610620565b3480156101c857600080fd5b506100f66101d736600461084c565b61064a565b6002546001600160a01b031633146102215760025460405163073e64fd60e21b81523360048201526001600160a01b0390911660248201526044015b60405180910390fd5b505050565b7f00000000000000000000000000000000000000000000000000000000000000003410156102675760405163181c600560e11b815260040160405180910390fd5b6003805460018101825560009182527fc2575a0e9e593c00f959f8c92f12db2869c3395a3b0502d05e2516446f71f85b0180546001600160a01b0319163390811790915560405190917f634f3211e3a4e43fee5a21ad9f87ca153b300fc78b1c557a2057dbe9c63bcb4791a2565b7f0000000000000000000000000000000000000000000000000000000000000000600454426103049190610895565b10156103525760405162461bcd60e51b815260206004820152601a60248201527f4e6f7420656e6f7567682074696d6520686173207061737365640000000000006044820152606401610218565b60006040518060c001604052807f000000000000000000000000000000000000000000000000000000000000000081526020017f00000000000000000000000000000000000000000000000000000000000000008152602001600361ffff1681526020017f000000000000000000000000000000000000000000000000000000000000000063ffffffff168152602001600163ffffffff16815260200161040960405180602001604052806000151581525061065e565b9052600254604051634d8e1c2f60e11b81529192506000916001600160a01b0390911690639b1c385e906104419085906004016108bc565b6020604051808303816000875af1158015610460573d6000803e3d6000fd5b505050506040513d601f19601f820116820180604052508101906102219190610958565b6001546001600160a01b031633146104d75760405162461bcd60e51b815260206004820152601660248201527526bab9ba10313290383937b837b9b2b21037bbb732b960511b6044820152606401610218565b60008054336001600160a01b0319808316821784556001805490911690556040516001600160a01b0390921692909183917f8be0079c531659141344cd1fd0a4f28419497f9722a3daafe3b4186f6b6457e091a350565b6000546001600160a01b0316331480159061055457506002546001600160a01b03163314155b156105a5573361056c6000546001600160a01b031690565b60025460405163061db9c160e01b81526001600160a01b0393841660048201529183166024830152919091166044820152606401610218565b6001600160a01b0381166105cc5760405163d92e233d60e01b815260040160405180910390fd5b600280546001600160a01b0319166001600160a01b0383169081179091556040519081527fd1a6a14209a385a964d036e404cb5cfb71f4000cdb03c9366292430787261be69060200160405180910390a150565b6003818154811061063057600080fd5b6000918252602090912001546001600160a01b0316905081565b6106526106cf565b61065b81610724565b50565b60607f92fd13387c7fe7befbc38d303d6468778fb9731bc4583f17d92989c6fcfdeaaa8260405160240161069791511515815260200190565b60408051601f198184030181529190526020810180516001600160e01b03166001600160e01b03199093169290921790915292915050565b6000546001600160a01b031633146107225760405162461bcd60e51b815260206004820152601660248201527527b7363c9031b0b63630b1363290313c9037bbb732b960511b6044820152606401610218565b565b336001600160a01b0382160361077c5760405162461bcd60e51b815260206004820152601760248201527f43616e6e6f74207472616e7366657220746f2073656c660000000000000000006044820152606401610218565b600180546001600160a01b0319166001600160a01b0383811691821790925560008054604051929316917fed8889f560326eb138920d842192f0eb3dd22b4f139c87a2c57538e05bae12789190a350565b6000806000604084860312156107e257600080fd5b83359250602084013567ffffffffffffffff8082111561080157600080fd5b818601915086601f83011261081557600080fd5b81358181111561082457600080fd5b8760208260051b850101111561083957600080fd5b6020830194508093505050509250925092565b60006020828403121561085e57600080fd5b81356001600160a01b038116811461087557600080fd5b9392505050565b60006020828403121561088e57600080fd5b5035919050565b818103818111156108b657634e487b7160e01b600052601160045260246000fd5b92915050565b6000602080835283518184015280840151604084015261ffff6040850151166060840152606084015163ffffffff80821660808601528060808701511660a0860152505060a084015160c08085015280518060e086015260005b818110156109335782810184015186820161010001528301610916565b506101009250600083828701015282601f19601f830116860101935050505092915050565b60006020828403121561096a57600080fd5b505191905056fea2646970667358221220745372ddb1dd371be44258b62b188d9b174d2307846c6313fec0f1348d62ce6864736f6c63430008130033","linkReferences":{}},"methodIdentifiers":{"acceptOwnership()":"79ba5097","enterRaffle()":"2cfcc539","getEntranceFee()":"09bc33a7","owner()":"8da5cb5b","pickWinner()":"5d495aea","rawFulfillRandomWords(uint256,uint256[])":"1fe543e3","s_players(uint256)":"ae771f6b","s_vrfCoordinator()":"9eccacf6","setCoordinator(address)":"8ea98117","transferOwnership(address)":"f2fde38b"},"id":8}