{"abi":[{"type":"constructor","inputs":[{"name":"entranceFee","type":"uint256","internalType":"uint256"},{"name":"interval","type":"uint256","internalType":"uint256"},{"name":"vrfCoordinator","type":"address","internalType":"address"},{"name":"gasLane","type":"bytes32","internalType":"bytes32"},{"name":"subscriptionId","type":"uint256","internalType":"uint256"},{"name":"callbackGasLimit","type":"uint32","internalType":"uint32"}],"stateMutability":"nonpayable"},{"type":"function","name":"acceptOwnership","inputs":[],"outputs":[],"stateMutability":"nonpayable"},{"type":"function","name":"checkUpkeep","inputs":[{"name":"","type":"bytes","internalType":"bytes"}],"outputs":[{"name":"upkeepNeeded","type":"bool","internalType":"bool"},{"name":"","type":"bytes","internalType":"bytes"}],"stateMutability":"view"},{"type":"function","name":"enterRaffle","inputs":[],"outputs":[],"stateMutability":"payable"},{"type":"function","name":"getEntranceFee","inputs":[],"outputs":[{"name":"","type":"uint256","internalType":"uint256"}],"stateMutability":"view"},{"type":"function","name":"getPlayers","inputs":[{"name":"indexOfPlayer","type":"uint256","internalType":"uint256"}],"outputs":[{"name":"","type":"address","internalType":"address"}],"stateMutability":"view"},{"type":"function","name":"getRaffleState","inputs":[],"outputs":[{"name":"","type":"uint8","internalType":"enum Raffle.RaffleState"}],"stateMutability":"view"},{"type":"function","name":"owner","inputs":[],"outputs":[{"name":"","type":"address","internalType":"address"}],"stateMutability":"view"},{"type":"function","name":"performUpkeep","inputs":[{"name":"","type":"bytes","internalType":"bytes"}],"outputs":[],"stateMutability":"nonpayable"},{"type":"function","name":"rawFulfillRandomWords","inputs":[{"name":"requestId","type":"uint256","internalType":"uint256"},{"name":"randomWords","type":"uint256[]","internalType":"uint256[]"}],"outputs":[],"stateMutability":"nonpayable"},{"type":"function","name":"s_players","inputs":[{"name":"","type":"uint256","internalType":"uint256"}],"outputs":[{"name":"","type":"address","internalType":"address payable"}],"stateMutability":"view"},{"type":"function","name":"s_vrfCoordinator","inputs":[],"outputs":[{"name":"","type":"address","internalType":"contract IVRFCoordinatorV2Plus"}],"stateMutability":"view"},{"type":"function","name":"setCoordinator","inputs":[{"name":"_vrfCoordinator","type":"address","internalType":"address"}],"outputs":[],"stateMutability":"nonpayable"},{"type":"function","name":"transferOwnership","inputs":[{"name":"to","type":"address","internalType":"address"}],"outputs":[],"stateMutability":"nonpayable"},{"type":"event","name":"CoordinatorSet","inputs":[{"name":"vrfCoordinator","type":"address","indexed":false,"internalType":"address"}],"anonymous":false},{"type":"event","name":"OwnershipTransferRequested","inputs":[{"name":"from","type":"address","indexed":true,"internalType":"address"},{"name":"to","type":"address","indexed":true,"internalType":"address"}],"anonymous":false},{"type":"event","name":"OwnershipTransferred","inputs":[{"name":"from","type":"address","indexed":true,"internalType":"address"},{"name":"to","type":"address","indexed":true,"internalType":"address"}],"anonymous":false},{"type":"event","name":"RaffleEntered","inputs":[{"name":"player","type":"address","indexed":true,"internalType":"address"}],"anonymous":false},{"type":"event","name":"WinnerPicked","inputs":[{"name":"winner","type":"address","indexed":true,"internalType":"address"}],"anonymous":false},{"type":"error","name":"OnlyCoordinatorCanFulfill","inputs":[{"name":"have","type":"address","internalType":"address"},{"name":"want","type":"address","internalType":"address"}]},{"type":"error","name":"OnlyOwnerOrCoordinator","inputs":[{"name":"have","type":"address","internalType":"address"},{"name":"owner","type":"address","internalType":"address"},{"name":"coordinator","type":"address","internalType":"address"}]},{"type":"error","name":"Raffle__RaffleNotOpen","inputs":[]},{"type":"error","name":"Raffle__SendMoreToEnterRaffle","inputs":[]},{"type":"error","name":"Raffle__TransferFailed","inputs":[]},{"type":"error","name":"Raffle__UpkeepNotNeeded","inputs":[{"name":"balance","type":"uint256","internalType":"uint256"},{"name":"playersLength","type":"uint256","internalType":"uint256"},{"name":"raffleState","type":"uint256","internalType":"uint256"}]},{"type":"error","name":"ZeroAddress","inputs":[]}],"bytecode":{"object":"0x61012060405234801561001157600080fd5b506040516111a43803806111a4833981016040819052610030916101dd565b8333806000816100875760405162461bcd60e51b815260206004820152601860248201527f43616e6e6f7420736574206f776e657220746f207a65726f000000000000000060448201526064015b60405180910390fd5b600080546001600160a01b0319166001600160a01b03848116919091179091558116156100b7576100b781610134565b5050506001600160a01b0381166100e15760405163d92e233d60e01b815260040160405180910390fd5b600280546001600160a01b0319166001600160a01b039290921691909117905560809590955260a0939093524260045560c0525060e05263ffffffff16610100526005805460ff60a01b19169055610253565b336001600160a01b0382160361018c5760405162461bcd60e51b815260206004820152601760248201527f43616e6e6f74207472616e7366657220746f2073656c66000000000000000000604482015260640161007e565b600180546001600160a01b0319166001600160a01b0383811691821790925560008054604051929316917fed8889f560326eb138920d842192f0eb3dd22b4f139c87a2c57538e05bae12789190a350565b60008060008060008060c087890312156101f657600080fd5b86516020880151604089015191975095506001600160a01b038116811461021c57600080fd5b80945050606087015192506080870151915060a087015163ffffffff8116811461024557600080fd5b809150509295509295509295565b60805160a05160c05160e05161010051610f0761029d60003960006104b50152600061048501526000610462015260006105b701526000818160d901526102e80152610f076000f3fe6080604052600436106100c25760003560e01c80636e04ff0d1161007f5780638ea98117116100595780638ea98117146102115780639eccacf614610231578063ae771f6b14610251578063f2fde38b1461027157600080fd5b80636e04ff0d146101b057806379ba5097146101de5780638da5cb5b146101f357600080fd5b806309bc33a7146100c7578063115cbaf5146101075780631fe543e31461012e5780632cfcc539146101505780634585e33b14610158578063460e204914610178575b600080fd5b3480156100d357600080fd5b506040517f000000000000000000000000000000000000000000000000000000000000000081526020015b60405180910390f35b34801561011357600080fd5b50600554600160a01b900460ff166040516100fe9190610b6a565b34801561013a57600080fd5b5061014e610149366004610b92565b610291565b005b61014e6102e6565b34801561016457600080fd5b5061014e610173366004610c11565b6103d3565b34801561018457600080fd5b50610198610193366004610c83565b61057f565b6040516001600160a01b0390911681526020016100fe565b3480156101bc57600080fd5b506101d06101cb366004610cb2565b6105af565b6040516100fe929190610da9565b3480156101ea57600080fd5b5061014e61064f565b3480156101ff57600080fd5b506000546001600160a01b0316610198565b34801561021d57600080fd5b5061014e61022c366004610dcc565b6106f9565b34801561023d57600080fd5b50600254610198906001600160a01b031681565b34801561025d57600080fd5b5061019861026c366004610c83565b6107eb565b34801561027d57600080fd5b5061014e61028c366004610dcc565b610815565b6002546001600160a01b031633146102d65760025460405163073e64fd60e21b81523360048201526001600160a01b0390911660248201526044015b60405180910390fd5b6102e1838383610829565b505050565b7f00000000000000000000000000000000000000000000000000000000000000003410156103275760405163181c600560e11b815260040160405180910390fd5b6000600554600160a01b900460ff16600181111561034757610347610b54565b146103655760405163349289c560e21b815260040160405180910390fd5b6003805460018101825560009182527fc2575a0e9e593c00f959f8c92f12db2869c3395a3b0502d05e2516446f71f85b0180546001600160a01b0319163390811790915560405190917f634f3211e3a4e43fee5a21ad9f87ca153b300fc78b1c557a2057dbe9c63bcb4791a2565b60006103ed604051806020016040528060008152506105af565b5090508061044357600354600554479190600160a01b900460ff16600181111561041957610419610b54565b604051632c2193d560e11b81526004810193909352602483019190915260448201526064016102cd565b6005805460ff60a01b1916600160a01b1790556040805160c0810182527f000000000000000000000000000000000000000000000000000000000000000081527f00000000000000000000000000000000000000000000000000000000000000006020808301919091526003828401527f000000000000000000000000000000000000000000000000000000000000000063ffffffff16606083015260016080830152825190810190925260008083529160a08201906105029061096b565b9052600254604051634d8e1c2f60e11b81529192506001600160a01b031690639b1c385e90610535908490600401610dfc565b6020604051808303816000875af1158015610554573d6000803e3d6000fd5b505050506040513d601f19601f820116820180604052508101906105789190610e59565b5050505050565b60006003828154811061059457610594610e72565b6000918252602090912001546001600160a01b031692915050565b6000606060007f0000000000000000000000000000000000000000000000000000000000000000600454426105e49190610e88565b10159050600080600554600160a01b900460ff16600181111561060957610609610b54565b600354911491504715159015158380156106205750825b80156106295750815b80156106325750805b604080516020810190915260008152909890975095505050505050565b6001546001600160a01b031633146106a25760405162461bcd60e51b815260206004820152601660248201527526bab9ba10313290383937b837b9b2b21037bbb732b960511b60448201526064016102cd565b60008054336001600160a01b0319808316821784556001805490911690556040516001600160a01b0390921692909183917f8be0079c531659141344cd1fd0a4f28419497f9722a3daafe3b4186f6b6457e091a350565b6000546001600160a01b0316331480159061071f57506002546001600160a01b03163314155b1561077057336107376000546001600160a01b031690565b60025460405163061db9c160e01b81526001600160a01b03938416600482015291831660248301529190911660448201526064016102cd565b6001600160a01b0381166107975760405163d92e233d60e01b815260040160405180910390fd5b600280546001600160a01b0319166001600160a01b0383169081179091556040519081527fd1a6a14209a385a964d036e404cb5cfb71f4000cdb03c9366292430787261be69060200160405180910390a150565b600381815481106107fb57600080fd5b6000918252602090912001546001600160a01b0316905081565b61081d6109dc565b61082681610a31565b50565b6003546000908383838161083f5761083f610e72565b905060200201356108509190610eaf565b905060006003828154811061086757610867610e72565b600091825260208083209190910154600580546001600160a81b0319166001600160a01b039092169182179055604080519384529183019182905291519192506108b49160039190610ada565b50426004556040516000906001600160a01b0383169047908381818185875af1925050503d8060008114610904576040519150601f19603f3d011682016040523d82523d6000602084013e610909565b606091505b505090508061092b5760405163a1d04b3960e01b815260040160405180910390fd5b6005546040516001600160a01b03909116907f5b690ec4a06fe979403046eaeea5b3ce38524683c3001f662c8b5a829632f7df90600090a2505050505050565b60607f92fd13387c7fe7befbc38d303d6468778fb9731bc4583f17d92989c6fcfdeaaa826040516024016109a491511515815260200190565b60408051601f198184030181529190526020810180516001600160e01b03166001600160e01b03199093169290921790915292915050565b6000546001600160a01b03163314610a2f5760405162461bcd60e51b815260206004820152601660248201527527b7363c9031b0b63630b1363290313c9037bbb732b960511b60448201526064016102cd565b565b336001600160a01b03821603610a895760405162461bcd60e51b815260206004820152601760248201527f43616e6e6f74207472616e7366657220746f2073656c6600000000000000000060448201526064016102cd565b600180546001600160a01b0319166001600160a01b0383811691821790925560008054604051929316917fed8889f560326eb138920d842192f0eb3dd22b4f139c87a2c57538e05bae12789190a350565b828054828255906000526020600020908101928215610b2f579160200282015b82811115610b2f57825182546001600160a01b0319166001600160a01b03909116178255602090920191600190910190610afa565b50610b3b929150610b3f565b5090565b5b80821115610b3b5760008155600101610b40565b634e487b7160e01b600052602160045260246000fd5b6020810160028310610b8c57634e487b7160e01b600052602160045260246000fd5b91905290565b600080600060408486031215610ba757600080fd5b83359250602084013567ffffffffffffffff80821115610bc657600080fd5b818601915086601f830112610bda57600080fd5b813581811115610be957600080fd5b8760208260051b8501011115610bfe57600080fd5b6020830194508093505050509250925092565b60008060208385031215610c2457600080fd5b823567ffffffffffffffff80821115610c3c57600080fd5b818501915085601f830112610c5057600080fd5b813581811115610c5f57600080fd5b866020828501011115610c7157600080fd5b60209290920196919550909350505050565b600060208284031215610c9557600080fd5b5035919050565b634e487b7160e01b600052604160045260246000fd5b600060208284031215610cc457600080fd5b813567ffffffffffffffff80821115610cdc57600080fd5b818401915084601f830112610cf057600080fd5b813581811115610d0257610d02610c9c565b604051601f8201601f19908116603f01168101908382118183101715610d2a57610d2a610c9c565b81604052828152876020848701011115610d4357600080fd5b826020860160208301376000928101602001929092525095945050505050565b6000815180845260005b81811015610d8957602081850181015186830182015201610d6d565b506000602082860101526020601f19601f83011685010191505092915050565b8215158152604060208201526000610dc46040830184610d63565b949350505050565b600060208284031215610dde57600080fd5b81356001600160a01b0381168114610df557600080fd5b9392505050565b60208152815160208201526020820151604082015261ffff60408301511660608201526000606083015163ffffffff80821660808501528060808601511660a0850152505060a083015160c080840152610dc460e0840182610d63565b600060208284031215610e6b57600080fd5b5051919050565b634e487b7160e01b600052603260045260246000fd5b81810381811115610ea957634e487b7160e01b600052601160045260246000fd5b92915050565b600082610ecc57634e487b7160e01b600052601260045260246000fd5b50069056fea2646970667358221220adc49bfd715dc8061655f1e602327a3567f0ac666b322e6ca14bc759764494e564736f6c63430008130033","linkReferences":{}},"methodIdentifiers":{"acceptOwnership()":"79ba5097","checkUpkeep(bytes)":"6e04ff0d","enterRaffle()":"2cfcc539","getEntranceFee()":"09bc33a7","getPlayers(uint256)":"460e2049","getRaffleState()":"115cbaf5","owner()":"8da5cb5b","performUpkeep(bytes)":"4585e33b","rawFulfillRandomWords(uint256,uint256[])":"1fe543e3","s_players(uint256)":"ae771f6b","s_vrfCoordinator()":"9eccacf6","setCoordinator(address)":"8ea98117","transferOwnership(address)":"f2fde38b"},"id":35}