{"abi":[{"type":"constructor","inputs":[{"name":"entranceFee","type":"uint256","internalType":"uint256"},{"name":"interval","type":"uint256","internalType":"uint256"},{"name":"vrfCoordinator","type":"address","internalType":"address"},{"name":"gasLane","type":"bytes32","internalType":"bytes32"},{"name":"subscriptionId","type":"uint256","internalType":"uint256"},{"name":"callbackGasLimit","type":"uint32","internalType":"uint32"}],"stateMutability":"nonpayable"},{"type":"function","name":"acceptOwnership","inputs":[],"outputs":[],"stateMutability":"nonpayable"},{"type":"function","name":"checkUpkeep","inputs":[{"name":"","type":"bytes","internalType":"bytes"}],"outputs":[{"name":"upkeepNeeded","type":"bool","internalType":"bool"},{"name":"","type":"bytes","internalType":"bytes"}],"stateMutability":"view"},{"type":"function","name":"enterRaffle","inputs":[],"outputs":[],"stateMutability":"payable"},{"type":"function","name":"getEntranceFee","inputs":[],"outputs":[{"name":"","type":"uint256","internalType":"uint256"}],"stateMutability":"view"},{"type":"function","name":"getRaffleState","inputs":[],"outputs":[{"name":"","type":"uint8","internalType":"enum Raffle.RaffleState"}],"stateMutability":"view"},{"type":"function","name":"owner","inputs":[],"outputs":[{"name":"","type":"address","internalType":"address"}],"stateMutability":"view"},{"type":"function","name":"performUpkeep","inputs":[{"name":"","type":"bytes","internalType":"bytes"}],"outputs":[],"stateMutability":"nonpayable"},{"type":"function","name":"rawFulfillRandomWords","inputs":[{"name":"requestId","type":"uint256","internalType":"uint256"},{"name":"randomWords","type":"uint256[]","internalType":"uint256[]"}],"outputs":[],"stateMutability":"nonpayable"},{"type":"function","name":"s_players","inputs":[{"name":"","type":"uint256","internalType":"uint256"}],"outputs":[{"name":"","type":"address","internalType":"address payable"}],"stateMutability":"view"},{"type":"function","name":"s_vrfCoordinator","inputs":[],"outputs":[{"name":"","type":"address","internalType":"contract IVRFCoordinatorV2Plus"}],"stateMutability":"view"},{"type":"function","name":"setCoordinator","inputs":[{"name":"_vrfCoordinator","type":"address","internalType":"address"}],"outputs":[],"stateMutability":"nonpayable"},{"type":"function","name":"transferOwnership","inputs":[{"name":"to","type":"address","internalType":"address"}],"outputs":[],"stateMutability":"nonpayable"},{"type":"event","name":"CoordinatorSet","inputs":[{"name":"vrfCoordinator","type":"address","indexed":false,"internalType":"address"}],"anonymous":false},{"type":"event","name":"OwnershipTransferRequested","inputs":[{"name":"from","type":"address","indexed":true,"internalType":"address"},{"name":"to","type":"address","indexed":true,"internalType":"address"}],"anonymous":false},{"type":"event","name":"OwnershipTransferred","inputs":[{"name":"from","type":"address","indexed":true,"internalType":"address"},{"name":"to","type":"address","indexed":true,"internalType":"address"}],"anonymous":false},{"type":"event","name":"RaffleEntered","inputs":[{"name":"player","type":"address","indexed":true,"internalType":"address"}],"anonymous":false},{"type":"event","name":"WinnerPicked","inputs":[{"name":"winner","type":"address","indexed":true,"internalType":"address"}],"anonymous":false},{"type":"error","name":"OnlyCoordinatorCanFulfill","inputs":[{"name":"have","type":"address","internalType":"address"},{"name":"want","type":"address","internalType":"address"}]},{"type":"error","name":"OnlyOwnerOrCoordinator","inputs":[{"name":"have","type":"address","internalType":"address"},{"name":"owner","type":"address","internalType":"address"},{"name":"coordinator","type":"address","internalType":"address"}]},{"type":"error","name":"Raffle__RaffleNotOpen","inputs":[]},{"type":"error","name":"Raffle__SendMoreToEnterRaffle","inputs":[]},{"type":"error","name":"Raffle__TransferFailed","inputs":[]},{"type":"error","name":"Raffle__UpkeepNotNeeded","inputs":[{"name":"balance","type":"uint256","internalType":"uint256"},{"name":"playersLength","type":"uint256","internalType":"uint256"},{"name":"raffleState","type":"uint256","internalType":"uint256"}]},{"type":"error","name":"ZeroAddress","inputs":[]}],"bytecode":{"object":"0x6101206040523480156200001257600080fd5b5060405162002393380380620023938339818101604052810190620000389190620004a7565b83338060008073ffffffffffffffffffffffffffffffffffffffff168273ffffffffffffffffffffffffffffffffffffffff1603620000ae576040517f08c379a0000000000000000000000000000000000000000000000000000000008152600401620000a590620005a4565b60405180910390fd5b816000806101000a81548173ffffffffffffffffffffffffffffffffffffffff021916908373ffffffffffffffffffffffffffffffffffffffff160217905550600073ffffffffffffffffffffffffffffffffffffffff168173ffffffffffffffffffffffffffffffffffffffff1614620001355762000134816200025760201b60201c565b5b505050600073ffffffffffffffffffffffffffffffffffffffff168173ffffffffffffffffffffffffffffffffffffffff16036200019f576040517fd92e233d00000000000000000000000000000000000000000000000000000000815260040160405180910390fd5b80600260006101000a81548173ffffffffffffffffffffffffffffffffffffffff021916908373ffffffffffffffffffffffffffffffffffffffff1602179055505085608081815250508460a08181525050426004819055508260c081815250508160e081815250508063ffffffff166101008163ffffffff16815250506000600560146101000a81548160ff02191690836001811115620002465762000245620005c6565b5b021790555050505050505062000667565b3373ffffffffffffffffffffffffffffffffffffffff168173ffffffffffffffffffffffffffffffffffffffff1603620002c8576040517f08c379a0000000000000000000000000000000000000000000000000000000008152600401620002bf9062000645565b60405180910390fd5b80600160006101000a81548173ffffffffffffffffffffffffffffffffffffffff021916908373ffffffffffffffffffffffffffffffffffffffff1602179055508073ffffffffffffffffffffffffffffffffffffffff1660008054906101000a900473ffffffffffffffffffffffffffffffffffffffff1673ffffffffffffffffffffffffffffffffffffffff167fed8889f560326eb138920d842192f0eb3dd22b4f139c87a2c57538e05bae127860405160405180910390a350565b600080fd5b6000819050919050565b620003a0816200038b565b8114620003ac57600080fd5b50565b600081519050620003c08162000395565b92915050565b600073ffffffffffffffffffffffffffffffffffffffff82169050919050565b6000620003f382620003c6565b9050919050565b6200040581620003e6565b81146200041157600080fd5b50565b6000815190506200042581620003fa565b92915050565b6000819050919050565b62000440816200042b565b81146200044c57600080fd5b50565b600081519050620004608162000435565b92915050565b600063ffffffff82169050919050565b620004818162000466565b81146200048d57600080fd5b50565b600081519050620004a18162000476565b92915050565b60008060008060008060c08789031215620004c757620004c662000386565b5b6000620004d789828a01620003af565b9650506020620004ea89828a01620003af565b9550506040620004fd89828a0162000414565b94505060606200051089828a016200044f565b93505060806200052389828a01620003af565b92505060a06200053689828a0162000490565b9150509295509295509295565b600082825260208201905092915050565b7f43616e6e6f7420736574206f776e657220746f207a65726f0000000000000000600082015250565b60006200058c60188362000543565b9150620005998262000554565b602082019050919050565b60006020820190508181036000830152620005bf816200057d565b9050919050565b7f4e487b7100000000000000000000000000000000000000000000000000000000600052602160045260246000fd5b7f43616e6e6f74207472616e7366657220746f2073656c66000000000000000000600082015250565b60006200062d60178362000543565b91506200063a82620005f5565b602082019050919050565b6000602082019050818103600083015262000660816200061e565b9050919050565b60805160a05160c05160e05161010051611ce0620006b36000396000610626015260006105f5015260006105cf0152600061072901526000818161029c015261039f0152611ce06000f3fe6080604052600436106100a75760003560e01c806379ba50971161006457806379ba50971461019c5780638da5cb5b146101b35780638ea98117146101de5780639eccacf614610207578063ae771f6b14610232578063f2fde38b1461026f576100a7565b806309bc33a7146100ac578063115cbaf5146100d75780631fe543e3146101025780632cfcc5391461012b5780634585e33b146101355780636e04ff0d1461015e575b600080fd5b3480156100b857600080fd5b506100c1610298565b6040516100ce9190611164565b60405180910390f35b3480156100e357600080fd5b506100ec6102c0565b6040516100f991906111f6565b60405180910390f35b34801561010e57600080fd5b50610129600480360381019061012491906112b6565b6102d7565b005b61013361039d565b005b34801561014157600080fd5b5061015c6004803603810190610157919061136c565b61050c565b005b34801561016a57600080fd5b50610185600480360381019061018091906114fa565b610721565b6040516101939291906115dd565b60405180910390f35b3480156101a857600080fd5b506101b16107e3565b005b3480156101bf57600080fd5b506101c8610978565b6040516101d5919061164e565b60405180910390f35b3480156101ea57600080fd5b5061020560048036038101906102009190611695565b6109a1565b005b34801561021357600080fd5b5061021c610b82565b6040516102299190611721565b60405180910390f35b34801561023e57600080fd5b506102596004803603810190610254919061173c565b610ba8565b604051610266919061178a565b60405180910390f35b34801561027b57600080fd5b5061029660048036038101906102919190611695565b610be7565b005b60007f0000000000000000000000000000000000000000000000000000000000000000905090565b6000600560149054906101000a900460ff16905090565b600260009054906101000a900473ffffffffffffffffffffffffffffffffffffffff1673ffffffffffffffffffffffffffffffffffffffff163373ffffffffffffffffffffffffffffffffffffffff161461038d5733600260009054906101000a900473ffffffffffffffffffffffffffffffffffffffff166040517f1cf993f40000000000000000000000000000000000000000000000000000000081526004016103849291906117a5565b60405180910390fd5b610398838383610bfb565b505050565b7f00000000000000000000000000000000000000000000000000000000000000003410156103f7576040517f3038c00a00000000000000000000000000000000000000000000000000000000815260040160405180910390fd5b6000600181111561040b5761040a61117f565b5b600560149054906101000a900460ff16600181111561042d5761042c61117f565b5b14610464576040517fd24a271400000000000000000000000000000000000000000000000000000000815260040160405180910390fd5b6003339080600181540180825580915050600190039060005260206000200160009091909190916101000a81548173ffffffffffffffffffffffffffffffffffffffff021916908373ffffffffffffffffffffffffffffffffffffffff1602179055503373ffffffffffffffffffffffffffffffffffffffff167f634f3211e3a4e43fee5a21ad9f87ca153b300fc78b1c557a2057dbe9c63bcb4760405160405180910390a2565b600061052660405180602001604052806000815250610721565b509050806105955747600380549050600560149054906101000a900460ff1660018111156105575761055661117f565b5b6040517f584327aa00000000000000000000000000000000000000000000000000000000815260040161058c939291906117ce565b60405180910390fd5b6001600560146101000a81548160ff021916908360018111156105bb576105ba61117f565b5b021790555060006040518060c001604052807f000000000000000000000000000000000000000000000000000000000000000081526020017f00000000000000000000000000000000000000000000000000000000000000008152602001600361ffff1681526020017f000000000000000000000000000000000000000000000000000000000000000063ffffffff168152602001600163ffffffff168152602001610677604051806020016040528060001515815250610e50565b8152509050600260009054906101000a900473ffffffffffffffffffffffffffffffffffffffff1673ffffffffffffffffffffffffffffffffffffffff16639b1c385e826040518263ffffffff1660e01b81526004016106d7919061193c565b6020604051808303816000875af11580156106f6573d6000803e3d6000fd5b505050506040513d601f19601f8201168201806040525081019061071a9190611973565b5050505050565b6000606060007f00000000000000000000000000000000000000000000000000000000000000006004544261075691906119cf565b10159050600080600181111561076f5761076e61117f565b5b600560149054906101000a900460ff1660018111156107915761079061117f565b5b149050600080471190506000806003805490501190508380156107b15750825b80156107ba5750815b80156107c35750805b955085604051806020016040528060008152509550955050505050915091565b600160009054906101000a900473ffffffffffffffffffffffffffffffffffffffff1673ffffffffffffffffffffffffffffffffffffffff163373ffffffffffffffffffffffffffffffffffffffff1614610873576040517f08c379a000000000000000000000000000000000000000000000000000000000815260040161086a90611a60565b60405180910390fd5b60008060009054906101000a900473ffffffffffffffffffffffffffffffffffffffff169050336000806101000a81548173ffffffffffffffffffffffffffffffffffffffff021916908373ffffffffffffffffffffffffffffffffffffffff1602179055506000600160006101000a81548173ffffffffffffffffffffffffffffffffffffffff021916908373ffffffffffffffffffffffffffffffffffffffff1602179055503373ffffffffffffffffffffffffffffffffffffffff168173ffffffffffffffffffffffffffffffffffffffff167f8be0079c531659141344cd1fd0a4f28419497f9722a3daafe3b4186f6b6457e060405160405180910390a350565b60008060009054906101000a900473ffffffffffffffffffffffffffffffffffffffff16905090565b6109a9610978565b73ffffffffffffffffffffffffffffffffffffffff163373ffffffffffffffffffffffffffffffffffffffff1614158015610a325750600260009054906101000a900473ffffffffffffffffffffffffffffffffffffffff1673ffffffffffffffffffffffffffffffffffffffff163373ffffffffffffffffffffffffffffffffffffffff1614155b15610aa15733610a40610978565b600260009054906101000a900473ffffffffffffffffffffffffffffffffffffffff166040517f061db9c1000000000000000000000000000000000000000000000000000000008152600401610a9893929190611a80565b60405180910390fd5b600073ffffffffffffffffffffffffffffffffffffffff168173ffffffffffffffffffffffffffffffffffffffff1603610b07576040517fd92e233d00000000000000000000000000000000000000000000000000000000815260040160405180910390fd5b80600260006101000a81548173ffffffffffffffffffffffffffffffffffffffff021916908373ffffffffffffffffffffffffffffffffffffffff1602179055507fd1a6a14209a385a964d036e404cb5cfb71f4000cdb03c9366292430787261be681604051610b77919061164e565b60405180910390a150565b600260009054906101000a900473ffffffffffffffffffffffffffffffffffffffff1681565b60038181548110610bb857600080fd5b906000526020600020016000915054906101000a900473ffffffffffffffffffffffffffffffffffffffff1681565b610bef610ee8565b610bf881610f78565b50565b600060038054905083836000818110610c1757610c16611ab7565b5b90506020020135610c289190611b15565b9050600060038281548110610c4057610c3f611ab7565b5b9060005260206000200160009054906101000a900473ffffffffffffffffffffffffffffffffffffffff16905080600560006101000a81548173ffffffffffffffffffffffffffffffffffffffff021916908373ffffffffffffffffffffffffffffffffffffffff1602179055506000600560146101000a81548160ff02191690836001811115610cd457610cd361117f565b5b0217905550600067ffffffffffffffff811115610cf457610cf36113cf565b5b604051908082528060200260200182016040528015610d225781602001602082028036833780820191505090505b5060039080519060200190610d389291906110a4565b504260048190555060008173ffffffffffffffffffffffffffffffffffffffff1647604051610d6690611b77565b60006040518083038185875af1925050503d8060008114610da3576040519150601f19603f3d011682016040523d82523d6000602084013e610da8565b606091505b5050905080610de3576040517fa1d04b3900000000000000000000000000000000000000000000000000000000815260040160405180910390fd5b600560009054906101000a900473ffffffffffffffffffffffffffffffffffffffff1673ffffffffffffffffffffffffffffffffffffffff167f5b690ec4a06fe979403046eaeea5b3ce38524683c3001f662c8b5a829632f7df60405160405180910390a2505050505050565b60607f92fd13387c7fe7befbc38d303d6468778fb9731bc4583f17d92989c6fcfdeaaa82604051602401610e849190611bb7565b604051602081830303815290604052907bffffffffffffffffffffffffffffffffffffffffffffffffffffffff19166020820180517bffffffffffffffffffffffffffffffffffffffffffffffffffffffff83818316178352505050509050919050565b60008054906101000a900473ffffffffffffffffffffffffffffffffffffffff1673ffffffffffffffffffffffffffffffffffffffff163373ffffffffffffffffffffffffffffffffffffffff1614610f76576040517f08c379a0000000000000000000000000000000000000000000000000000000008152600401610f6d90611c1e565b60405180910390fd5b565b3373ffffffffffffffffffffffffffffffffffffffff168173ffffffffffffffffffffffffffffffffffffffff1603610fe6576040517f08c379a0000000000000000000000000000000000000000000000000000000008152600401610fdd90611c8a565b60405180910390fd5b80600160006101000a81548173ffffffffffffffffffffffffffffffffffffffff021916908373ffffffffffffffffffffffffffffffffffffffff1602179055508073ffffffffffffffffffffffffffffffffffffffff1660008054906101000a900473ffffffffffffffffffffffffffffffffffffffff1673ffffffffffffffffffffffffffffffffffffffff167fed8889f560326eb138920d842192f0eb3dd22b4f139c87a2c57538e05bae127860405160405180910390a350565b82805482825590600052602060002090810192821561111d579160200282015b8281111561111c5782518260006101000a81548173ffffffffffffffffffffffffffffffffffffffff021916908373ffffffffffffffffffffffffffffffffffffffff160217905550916020019190600101906110c4565b5b50905061112a919061112e565b5090565b5b8082111561114757600081600090555060010161112f565b5090565b6000819050919050565b61115e8161114b565b82525050565b60006020820190506111796000830184611155565b92915050565b7f4e487b7100000000000000000000000000000000000000000000000000000000600052602160045260246000fd5b600281106111bf576111be61117f565b5b50565b60008190506111d0826111ae565b919050565b60006111e0826111c2565b9050919050565b6111f0816111d5565b82525050565b600060208201905061120b60008301846111e7565b92915050565b6000604051905090565b600080fd5b600080fd5b61122e8161114b565b811461123957600080fd5b50565b60008135905061124b81611225565b92915050565b600080fd5b600080fd5b600080fd5b60008083601f84011261127657611275611251565b5b8235905067ffffffffffffffff81111561129357611292611256565b5b6020830191508360208202830111156112af576112ae61125b565b5b9250929050565b6000806000604084860312156112cf576112ce61121b565b5b60006112dd8682870161123c565b935050602084013567ffffffffffffffff8111156112fe576112fd611220565b5b61130a86828701611260565b92509250509250925092565b60008083601f84011261132c5761132b611251565b5b8235905067ffffffffffffffff81111561134957611348611256565b5b6020830191508360018202830111156113655761136461125b565b5b9250929050565b600080602083850312156113835761138261121b565b5b600083013567ffffffffffffffff8111156113a1576113a0611220565b5b6113ad85828601611316565b92509250509250929050565b600080fd5b6000601f19601f8301169050919050565b7f4e487b7100000000000000000000000000000000000000000000000000000000600052604160045260246000fd5b611407826113be565b810181811067ffffffffffffffff82111715611426576114256113cf565b5b80604052505050565b6000611439611211565b905061144582826113fe565b919050565b600067ffffffffffffffff821115611465576114646113cf565b5b61146e826113be565b9050602081019050919050565b82818337600083830152505050565b600061149d6114988461144a565b61142f565b9050828152602081018484840111156114b9576114b86113b9565b5b6114c484828561147b565b509392505050565b600082601f8301126114e1576114e0611251565b5b81356114f184826020860161148a565b91505092915050565b6000602082840312156115105761150f61121b565b5b600082013567ffffffffffffffff81111561152e5761152d611220565b5b61153a848285016114cc565b91505092915050565b60008115159050919050565b61155881611543565b82525050565b600081519050919050565b600082825260208201905092915050565b60005b8381101561159857808201518184015260208101905061157d565b60008484015250505050565b60006115af8261155e565b6115b98185611569565b93506115c981856020860161157a565b6115d2816113be565b840191505092915050565b60006040820190506115f2600083018561154f565b818103602083015261160481846115a4565b90509392505050565b600073ffffffffffffffffffffffffffffffffffffffff82169050919050565b60006116388261160d565b9050919050565b6116488161162d565b82525050565b6000602082019050611663600083018461163f565b92915050565b6116728161162d565b811461167d57600080fd5b50565b60008135905061168f81611669565b92915050565b6000602082840312156116ab576116aa61121b565b5b60006116b984828501611680565b91505092915050565b6000819050919050565b60006116e76116e26116dd8461160d565b6116c2565b61160d565b9050919050565b60006116f9826116cc565b9050919050565b600061170b826116ee565b9050919050565b61171b81611700565b82525050565b60006020820190506117366000830184611712565b92915050565b6000602082840312156117525761175161121b565b5b60006117608482850161123c565b91505092915050565b60006117748261160d565b9050919050565b61178481611769565b82525050565b600060208201905061179f600083018461177b565b92915050565b60006040820190506117ba600083018561163f565b6117c7602083018461163f565b9392505050565b60006060820190506117e36000830186611155565b6117f06020830185611155565b6117fd6040830184611155565b949350505050565b6000819050919050565b61181881611805565b82525050565b6118278161114b565b82525050565b600061ffff82169050919050565b6118448161182d565b82525050565b600063ffffffff82169050919050565b6118638161184a565b82525050565b600082825260208201905092915050565b60006118858261155e565b61188f8185611869565b935061189f81856020860161157a565b6118a8816113be565b840191505092915050565b600060c0830160008301516118cb600086018261180f565b5060208301516118de602086018261181e565b5060408301516118f1604086018261183b565b506060830151611904606086018261185a565b506080830151611917608086018261185a565b5060a083015184820360a086015261192f828261187a565b9150508091505092915050565b6000602082019050818103600083015261195681846118b3565b905092915050565b60008151905061196d81611225565b92915050565b6000602082840312156119895761198861121b565b5b60006119978482850161195e565b91505092915050565b7f4e487b7100000000000000000000000000000000000000000000000000000000600052601160045260246000fd5b60006119da8261114b565b91506119e58361114b565b92508282039050818111156119fd576119fc6119a0565b5b92915050565b600082825260208201905092915050565b7f4d7573742062652070726f706f736564206f776e657200000000000000000000600082015250565b6000611a4a601683611a03565b9150611a5582611a14565b602082019050919050565b60006020820190508181036000830152611a7981611a3d565b9050919050565b6000606082019050611a95600083018661163f565b611aa2602083018561163f565b611aaf604083018461163f565b949350505050565b7f4e487b7100000000000000000000000000000000000000000000000000000000600052603260045260246000fd5b7f4e487b7100000000000000000000000000000000000000000000000000000000600052601260045260246000fd5b6000611b208261114b565b9150611b2b8361114b565b925082611b3b57611b3a611ae6565b5b828206905092915050565b600081905092915050565b50565b6000611b61600083611b46565b9150611b6c82611b51565b600082019050919050565b6000611b8282611b54565b9150819050919050565b611b9581611543565b82525050565b602082016000820151611bb16000850182611b8c565b50505050565b6000602082019050611bcc6000830184611b9b565b92915050565b7f4f6e6c792063616c6c61626c65206279206f776e657200000000000000000000600082015250565b6000611c08601683611a03565b9150611c1382611bd2565b602082019050919050565b60006020820190508181036000830152611c3781611bfb565b9050919050565b7f43616e6e6f74207472616e7366657220746f2073656c66000000000000000000600082015250565b6000611c74601783611a03565b9150611c7f82611c3e565b602082019050919050565b60006020820190508181036000830152611ca381611c67565b905091905056fea2646970667358221220645abaf17e577bebbc0235374ee39c12995c77e4559d096e0851e718c89761a064736f6c63430008130033","linkReferences":{}},"methodIdentifiers":{"acceptOwnership()":"79ba5097","checkUpkeep(bytes)":"6e04ff0d","enterRaffle()":"2cfcc539","getEntranceFee()":"09bc33a7","getRaffleState()":"115cbaf5","owner()":"8da5cb5b","performUpkeep(bytes)":"4585e33b","rawFulfillRandomWords(uint256,uint256[])":"1fe543e3","s_players(uint256)":"ae771f6b","s_vrfCoordinator()":"9eccacf6","setCoordinator(address)":"8ea98117","transferOwnership(address)":"f2fde38b"},"id":35}